:020000040800F2
:100000000028002005150008951400089B1400081E
:10001000A1140008A7140008AD1400080000000097
:10002000000000000000000000000000B314000801
:10003000BF14000800000000CB140008D71400080B
:100040004D1500084D1500084D1500084D15000808
:100050004D1500084D1500084D1500084D150008F8
:100060004D1500084D1500084D1500084D150008E8
:100070004D1500084D1500084D1500084D150008D8
:100080004D1500084D1500084D1500084D150008C8
:100090004D1500084D1500084D1500084D150008B8
:1000A0004D1500084D1500084D1500084D150008A8
:1000B000E51400084D150008000000004D1500086B
:1000C0004D15000800000000000000004D1500085C
:1000D000000000004D1500084D150008000000004C
:1000E0004D1500084D1500084D15000800000000D2
:1000F0000000000000000000000000000000000000
:0C01000000000000000000005FF808F1A3
:10010C0010B5054C237833B9044B13B10448AFF345
:10011C0000800123237010BD50000020000000005F
:10012C00A42B000808B5034B1BB103490348AFF3DC
:10013C00008008BD0000000054000020A42B000823
:10014C0080B500AF4FF400610D4801F0E5FC0346AB
:10015C001A460C4B1A604FF48051094801F0DCFC34
:10016C0003461A46074B5A604FF40051044801F0FD
:10017C00D3FC03461A46034B9A6000BF80BD00BFF8
:10018C00000801407800002080B400AF064B1B68CB
:10019C00012B04D1044B00221A60012300E0002340
:1001AC001846BD4680BC70476C00002080B400AF80
:1001BC00064B1B68012B04D1044B00221A6001234F
:1001CC0000E000231846BD4680BC7047700000203C
:1001DC0080B400AF064B1B68012B04D1044B0022EA
:1001EC001A60012300E000231846BD4680BC70470E
:1001FC007400002080B483B000AF78607B68002B63
:10020C0002D10A4B01221A607B68012B02D1084BE8
:10021C0001221A607B68022B02D1064B01221A6064
:10022C0000BF0C37BD4680BC704700BF6C0000207F
:10023C00700000207400002080B582B000AF002355
:10024C007B6066E0FFF77CFF364A7B6852F8232020
:10025C0035497B6841F82320344A7B6852F82320C7
:10026C0030497B6841F82320314A7B6852F82320BF
:10027C002E497B6841F823202B4A7B6852F82320B7
:10028C0028497B6851F823309A423FD1254A7B6834
:10029C0052F8232025497B6851F823309A4235D1F6
:1002AC00244A7B6852F8232020497B6851F823307C
:1002BC009A4215D01D4A7B6852F823201D497B6851
:1002CC0041F82320194A7B6852F82330002B1DD1AA
:1002DC007868FFF78FFF184B4FF4FA621A6015E03D
:1002EC00154B1B68013B144A1360134B1B68002B06
:1002FC000CD10E4A7B6852F82330002B02D178685F
:10030C00FFF778FF0C4B4FF4FA621A607B680133ED
:10031C007B607B68022B95DD00BF00BF0837BD46B4
:10032C0080BD00BF0C000020000000201800002041
:10033C0078000020240000203000002080B500AFA1
:10034C00964B1B68023B042B00F22C8201A252F844
:10035C0023F000BF75030008CB030008AF040008AE
:10036C00D5050008B906000800F018FD8B4B0322D8
:10037C001A604FF47A7000F0DBFF4FF4FA7000F063
:10038C00EBFF874B01221A60864B1B68864A82FB67
:10039C0003129211DB17D31A844A1360844B1B6827
:1003AC00814A82FB03129211DB17D31A814A136024
:1003BC00814B01221A60012000F02AFEFBE100F0C3
:1003CC0027FD00F051FD7C4B1B68002B07D1012051
:1003DC0000F01EFE754B1B68184600F087FD764B2F
:1003EC001B68012B07D1032000F012FE714B1B6818
:1003FC00184600F07BFD714B1B68012B09D16E4B2D
:10040C001B68C3F101036C4A13604FF4FA7000F0DF
:10041C00A3FF6B4B1B68012B2FD1624B1B68624AED
:10042C0082FB03129211DB17D21A5D4B1B689A42A6
:10043C0010DC5A4B04221A60624B1B685A4A82FB2E
:10044C0003129211DB17D31A0133584A1360544B21
:10045C0000221A60524B1B680133514A1360534BF4
:10046C001B68013B514A1360524B1B68013B514ABC
:10047C0013604FF47A7000F05BFFFFF785FE0346C4
:10048C00012B40F09181454B0D221A604FF4FA700C
:10049C0000F04EFF4FF4FA7000F05EFF00F07EFCAF
:1004AC0082E100F0CBFC00F0DFFC434B1B68002B1F
:1004BC0007D1012000F0ACFD3C4B1B68184600F046
:1004CC0015FD3D4B1B68012B07D1032000F0A0FD4F
:1004DC00384B1B68184600F009FD384B1B68012B84
:1004EC0009D1354B1B68C3F10103334A13604FF438
:1004FC00FA7000F031FF324B1B68012B3AD1314BB3
:10050C001B68294A82FB03129211DB17D21A244B67
:10051C001B689A421BDC214B05221A60244B1B687A
:10052C00214A82FB03129211DB17D31A01331F4AA3
:10053C0013601C4B1B681C4A82FB03129211DB17C5
:10054C00D31A01331B4A1360154B00221A60144B4B
:10055C001B680133124A1360144B1B68013B134A8E
:10056C001360144B1B68013B124A13604FF47A70F2
:10057C0000F0DEFEFFF708FE0346012B40F016816B
:10058C00064B0D221A604FF4FA7000F0D1FE4FF4B6
:10059C00FA7000F0E1FE00F001FC07E1A000002081
:1005AC00840000203C000020D34D62108800002005
:1005BC00380000208C00002090000020B0000020AB
:1005CC00A80000204000002000F00CFC00F062FCB1
:1005DC007A4B1B68002B07D1012000F019FD784BDA
:1005EC001B68184600F082FC744B1B68012B07D16A
:1005FC00032000F00DFD734B1B68184600F076FCD1
:10060C00714B1B68012B09D16C4B1B68C3F10103A7
:10061C006A4A13604FF4FA7000F09EFE6B4B1B6835
:10062C00012B2FD16A4B1B686A4A82FB0312921171
:10063C00DB17D21A684B1B689A4210DC674B0622F8
:10064C001A60674B1B68634A82FB03129211DB171B
:10065C00D31A01335B4A13605F4B00221A605E4B66
:10066C001B6801335C4A1360554B1B68013B544AB1
:10067C001360544B1B68013B524A13604FF47A7061
:10068C0000F056FEFFF780FD0346012B40F09080F2
:10069C00524B0D221A604FF4FA7000F049FE4FF4E1
:1006AC00FA7000F059FE00F079FB81E000F09AFB43
:1006BC0000F006FC414B1B68002B07D1012000F019
:1006CC00A7FC3F4B1B68184600F010FC3B4B1B680B
:1006DC00012B07D1032000F09BFC3A4B1B681846FA
:1006EC0000F004FC384B1B68012B09D1334B1B6801
:1006FC00C3F10103314A13604FF4FA7000F02CFE81
:10070C00324B1B68012B3AD1354B1B68314A82FBAB
:10071C0003129211DB17D21A2F4B1B689A421BDC67
:10072C002E4B03221A602C4B00221A60284B1B689C
:10073C00284A82FB03129211DB17D31A0133204A89
:10074C001360284B1B68234A82FB03129211DB17A0
:10075C00D31A01331B4A13601F4B1B6801331E4A0B
:10076C001360174B1B68013B154A1360154B1B6834
:10077C00013B144A13604FF47A7000F0D9FDFFF777
:10078C0003FD0346012B15D1144B0D221A604FF4B7
:10079C00FA7000F0CDFD4FF4FA7000F0DDFD00F0C2
:1007AC00FDFA07E000BF06E000BF04E000BF02E076
:1007BC0000BF00E000BF00BF80BD00BF9000002064
:1007CC00880000208C000020B0000020A800002031
:1007DC003C000020D34D621084000020A0000020BB
:1007EC00400000203800002080B500AF9C4B1B68F7
:1007FC00013B0E2B00F2B58201A252F823F000BF90
:10080C00490800086F0D00086F0D00086F0D0008F7
:10081C006F0D00086F0D00086F0D00086F0D0008BC
:10082C006F0D00086F0D00086F0D0008A708000879
:10083C0005090008A10A0008070C0008894B1B6871
:10084C00894A82FB03129211DB17D31A874A136071
:10085C00874B1B68844A82FB03129211DB17D31A55
:10086C00844A1360844B1B687F4A82FB03129211EB
:10087C00DB17D31A814A1360814B01221A60784B23
:10088C000C221A604FF4FA7000F052FD4FF4FA701B
:10089C0000F062FD00F082FA6AE2042000F0B8FB7E
:1008AC00012000F023FB774B1B68012B0FD1744BFD
:1008BC001B680133724A1360714B1B68042B02DDF9
:1008CC006F4B01221A604FF4FA7000F031FDFFF704
:1008DC005BFC0346012B0BD1614B0D221A604FF4CC
:1008EC00FA7000F025FD4FF4FA7000F035FD3FE290
:1008FC005B4B02221A603BE2614B1B68184600F00E
:10090C0087FB5F4B1B68012B0AD1584B1B685E4A57
:10091C0082FB03129210DB17D31A184600F0E6FA8A
:10092C00574B1B68022B0FD1504B1A68564B83FB4D
:10093C0002139910D317C91A0B469B000B445B008A
:10094C00D11A084600F0D2FA4D4B1B68032B02D18A
:10095C00002000F0CBFA4A4B1B68042B02D102207A
:10096C0000F0C4FA474B1B68012B0FD1444B1B689A
:10097C000133434A1360424B1B68042B02DD404B8E
:10098C0001221A604FF4FA7000F0D2FC3F4B1B6846
:10099C00012B1BD108213E4801F0EDF802213C4807
:1009AC0001F0E9F804213A4801F0E5F84021384813
:1009BC0001F0E1F81021364801F0DDF8202134482F
:1009CC0001F0D9F84FF4FA7000F0C6FCFFF7DCFB2D
:1009DC000346012B0DD1224B0E221A60284B01220B
:1009EC001A604FF4FA7000F0A3FC4FF4FA7000F0A8
:1009FC00B3FCFFF7DBFB0346012B16D11B4B1B682B
:100A0C0001331A4A1360194B1B68632B02DD174B19
:100A1C0001221A60124B0D221A604FF4FA7000F08A
:100A2C0087FC4FF4FA7000F097FCFFF7D1FB0346FC
:100A3C00012B40F098810D4B1B684FF47A7202FB2E
:100A4C0003F3084A1360064B0D221A604FF4FA7038
:100A5C0000F06EFC4FF4FA7000F07EFC83E100BFF6
:100A6C00A000002038000020D34D6210940000201C
:100A7C003C00002098000020400000209C0000203A
:100A8C0034000020A800002067666666B0000020D5
:100A9C0000080140B74B1B68184600F0B9FAB54B7B
:100AAC001B68012B0AD1B44B1B68B44A82FB03129E
:100ABC009210DB17D31A184600F018FAAD4B1B68CE
:100ACC00022B0FD1AC4B1A68AC4B83FB0213991061
:100ADC00D317C91A0B469B000B445B00D11A08466E
:100AEC0000F004FAA34B1B68032B02D1002000F08A
:100AFC00FDF9A04B1B68042B02D1032000F0F6F982
:100B0C009F4B1B68012B0FD19A4B1B680133994AE1
:100B1C001360984B1B68042B02DD964B01221A6064
:100B2C004FF4FA7000F004FC964B1B68012B1BD1A0
:100B3C000821954801F01FF80221934801F01BF899
:100B4C000421914801F017F840218F4801F013F867
:100B5C0010218D4801F00FF820218B4801F00BF883
:100B6C004FF4FA7000F0F8FBFFF70EFB0346012B75
:100B7C000DD1864B0F221A607E4B01221A604FF466
:100B8C00FA7000F0D5FB4FF4FA7000F0E5FBFFF7BC
:100B9C000DFB0346012B16D1774B1B680133764AAC
:100BAC001360754B1B68632B02DD734B01221A60BB
:100BBC00764B0E221A604FF4FA7000F0B9FB4FF42A
:100BCC00FA7000F0C9FBFFF703FB0346012B40F062
:100BDC00CC80694B1B684FF47A7202FB03F36C4AAE
:100BEC0013606A4B0E221A604FF4FA7000F0A0FBEF
:100BFC004FF4FA7000F0B0FBB7E05E4B1B68184680
:100C0C0000F006FA5B4B1B68012B0AD1614B1B6889
:100C1C005A4A82FB03129210DB17D31A184600F0C3
:100C2C0065F9544B1B68022B0FD15A4B1A68534B66
:100C3C0083FB02139910D317C91A0B469B000B4464
:100C4C005B00D11A084600F051F94A4B1B68032B84
:100C5C0002D1002000F04AF9464B1B68042B02D14C
:100C6C00042000F043F9464B1B68012B0FD1414B7C
:100C7C001B6801333F4A13603E4B1B68042B02DD9B
:100C8C003C4B01221A604FF4FA7000F051FB3D4BC3
:100C9C001B68012B1BD108213B4800F06CFF022183
:100CAC00394800F068FF0421374800F064FF402108
:100CBC00354800F060FF1021334800F05CFF202124
:100CCC00314800F058FF4FF4FA7000F045FBFFF785
:100CDC005BFA0346012B0FD12C4B0C221A60254BCF
:100CEC0001221A604FF4FA7000F022FB4FF4FA70F4
:100CFC0000F032FB00F052F8FFF758FA0346012BD4
:100D0C0016D1244B1B680133224A1360214B1B68FC
:100D1C00632B02DD1F4B01221A601C4B0F221A6041
:100D2C004FF4FA7000F004FB4FF4FA7000F014FB6F
:100D3C00FFF74EFA0346012B19D1164B1B684FF4E3
:100D4C007A7202FB03F3144A1360104B0F221A60E1
:100D5C004FF4FA7000F0ECFA4FF4FA7000F0FCFA71
:100D6C0005E000BF04E000BF02E000BF00E000BFF0
:100D7C0000BF80BD340000209C00002067666666C2
:100D8C00A8000020B000002000080140A0000020B6
:100D9C0040000020980000203C00002080B500AFEF
:100DAC00002208210E4800F0CEFE002202210C4841
:100DBC0000F0C9FE00220421094800F0C4FE002204
:100DCC004021074800F0BFFE00221021044800F02B
:100DDC00BAFE00222021024800F0B5FE00BF80BD03
:100DEC000008014080B500AF01220821074800F03F
:100DFC00AAFE00220221054800F0A5FE00220421D3
:100E0C00024800F0A0FE00BF80BD00BF00080140FA
:100E1C0080B500AF00220821074800F094FE0122A3
:100E2C000221054800F08FFE00220421024800F048
:100E3C008AFE00BF80BD00BF0008014080B500AF36
:100E4C0000220821074800F07EFE002202210548FE
:100E5C0000F079FE01220421024800F074FE00BF6C
:100E6C0080BD00BF0008014080B500AF01224021C9
:100E7C00074800F068FE00221021054800F063FED0
:100E8C0000222021024800F05EFE00BF80BD00BFA2
:100E9C000008014080B500AF00224021074800F057
:100EAC0052FE01221021054800F04DFE00222021A7
:100EBC00024800F048FE00BF80BD00BF00080140A2
:100ECC0080B500AF00224021074800F03CFE002214
:100EDC001021054800F037FE01222021024800F0C5
:100EEC0032FE00BF80BD00BF0008014080B582B05B
:100EFC0000AF78607B68012B0AD1002206214348A1
:100F0C0000F021FE01227921404800F01CFE79E01E
:100F1C007B68022B0AD100225B213C4800F013FEB7
:100F2C0001222421394800F00EFE6BE07B68032B74
:100F3C000AD100224F21354800F005FE0122302154
:100F4C00324800F000FE5DE07B68042B0AD10022E1
:100F5C0066212E4800F0F7FD012219212B4800F0E4
:100F6C00F2FD4FE07B68052B0AD100226D2127484A
:100F7C0000F0E9FD01221221244800F0E4FD41E0DB
:100F8C007B68062B0AD100227D21204800F0DBFD76
:100F9C00012202211D4800F0D6FD33E07B68072BAF
:100FAC000AD100220721194800F0CDFD0122782139
:100FBC00164800F0C8FD25E07B68082B0AD10022FA
:100FCC007F21124800F0BFFD012200210F4800F0E4
:100FDC00BAFD17E07B68092B0AD100226F210B4860
:100FEC0000F0B1FD01221021084800F0ACFD09E031
:100FFC0000223F21054800F0A6FD012240210348B4
:10100C0000F0A1FD00BF0837BD4680BD000C0140BB
:10101C0080B582B000AF78607B68012B16D10022BE
:10102C008021334800F08FFD01224FF4807130484D
:10103C0000F089FD01224FF400712D4800F083FD72
:10104C0001224FF480612A4800F07DFD7B68022B61
:10105C0016D101228021264800F075FD00224FF4A4
:10106C008071234800F06FFD01224FF4007120487D
:10107C0000F069FD01224FF480611D4800F063FD12
:10108C007B68032B16D101228021194800F05BFDEF
:10109C0001224FF48071164800F055FD00224FF4E8
:1010AC000071134800F04FFD01224FF4806110488D
:1010BC0000F049FD7B68042B16D1012280210C48DD
:1010CC0000F041FD01224FF48071094800F03BFD16
:1010DC0001224FF40071064800F035FD00224FF458
:1010EC008061034800F02FFD00BF0837BD4680BD6E
:1010FC000008014080B500AF00F024FA00F01CF8A5
:10110C0000F0A2F800F054F8094801F085F9094BF9
:10111C0001221A604FF4FA7000F00AF94FF4FA70D9
:10112C0000F01AF9FFF760FBFFF708F9FAE700BFC8
:10113C00B4000020A000002080B590B000AF07F1F3
:10114C00180328220021184601F01EFD3B1D002229
:10115C001A605A609A60DA601A610223BB6101233B
:10116C00BB621023FB6200237B6307F11803184654
:10117C0000F01AFD0346002B01D000F0D3F80F232A
:10118C007B600023BB600023FB6000233B610023DA
:10119C007B613B1D0021184600F086FF0346002BA7
:1011AC0001D000F0BFF800BF4037BD4680BD000045
:1011BC0080B586B000AF07F1080300221A605A60B0
:1011CC009A60DA603B4600221A605A601D4B4FF061
:1011DC0080421A601B4B40F21F325A60194B00229E
:1011EC009A60184B0922DA60164B00221A61154BD3
:1011FC0000229A61134801F0BFF80346002B01D07E
:10120C0000F090F84FF48053BB6007F108031946C7
:10121C000C4801F055FA0346002B01D000F082F87F
:10122C0000233B6000237B603B461946054801F0D8
:10123C001DFC0346002B01D000F074F800BF1837DA
:10124C00BD4680BDB400002080B586B000AF07F16C
:10125C00080300221A605A609A60DA60284B9B6976
:10126C00274A43F004039361254B9B6903F0040365
:10127C007B607B68224B9B69214A43F00803936196
:10128C001F4B9B6903F008033B603B68002240F254
:10129C00FE711C4800F057FC00227F211A4800F018
:1012AC0052FC40F2FE73BB600123FB6000233B61E8
:1012BC0002237B6107F108031946124800F0B2FAC9
:1012CC007F23BB600123FB6000233B6102237B6116
:1012DC0007F1080319460C4800F0A4FA4FF46053C8
:1012EC00BB600023FB6001233B6107F10803194637
:1012FC00044800F097FA00BF1837BD4680BD00BF08
:10130C000010024000080140000C014080B582B082
:10131C0000AF786000F034F8FEF78EFF00BF08379E
:10132C00BD4680BD80B400AF72B600BFFEE70000C2
:10133C0080B483B000AF7860054A7B681360054BBE
:10134C0000221A6000BF0C37BD4680BC704700BF3E
:10135C00A4000020A800002080B483B000AF786007
:10136C00054A7B681360054B00221A6000BF0C37DE
:10137C00BD4680BC704700BFAC000020B000002010
:10138C0080B400AF114B1B68002B0BDD0F4B1B689F
:10139C00013B0E4A13600D4B1B68002B02DC0C4BFF
:1013AC0001221A600B4B1B68002B0BDD094B1B68D1
:1013BC00013B084A1360074B1B68002B02DC064BF1
:1013CC0001221A6000BFBD4680BC7047A4000020FB
:1013DC00A8000020AC000020B000002080B485B034
:1013EC0000AF154B9B69144A43F001039361124BF8
:1013FC009B6903F00103BB60BB680F4BDB690E4AB2
:10140C0043F08053D3610C4BDB6903F080537B605A
:10141C007B680A4B5B68FB60FB6823F0E063FB6056
:10142C00FB6843F08063FB60044AFB68536000BFB9
:10143C001437BD4680BC70470010024000000140CC
:10144C0080B584B000AF78607B681B68B3F1804FC7
:10145C0013D10C4BDB690B4A43F00103D361094BED
:10146C00DB6903F00103FB60FB68002200211C20F8
:10147C0000F0A1F91C2000F0BAF900BF1037BD46EE
:10148C0080BD00BF0010024080B400AFFEE780B406
:10149C0000AFFEE780B400AFFEE780B400AFFEE71C
:1014AC0080B400AFFEE780B400AF00BFBD4680BC87
:1014BC00704780B400AF00BFBD4680BC704780B49D
:1014CC0000AF00BFBD4680BC704780B500AF00F0D8
:1014DC007FF800BF80BD000080B500AF024800F06F
:1014EC00E7FF00BF80BD00BFB400002080B400AF98
:1014FC0000BFBD4680BC70470C480D490D4A002307
:10150C0002E0D458C4500433C4188C42F9D30A4AAC
:10151C000A4C002301E013600432A242FBD3FFF714
:10152C00E5FF01F00DFBFFF7E5FD70470000002023
:10153C0050000020E42B0008500000200001002087
:10154C00FEE7000080B500AF084B1B68074A43F06C
:10155C0010031360032000F023F90F2000F008F8AB
:10156C00FFF73CFF0023184680BD00BF002002405F
:10157C0080B582B000AF7860124B1A68124B1B78A2
:10158C0019464FF47A73B3FBF1F3B2FBF3F318463D
:10159C0000F03BF90346002B01D001230EE07B68E1
:1015AC000F2B0AD8002279684FF0FF3000F003F9B6
:1015BC00064A7B681360002300E0012318460837B5
:1015CC00BD4680BD440000204C0000204800002097
:1015DC0080B400AF054B1B781A46054B1B681344AF
:1015EC00034A136000BFBD4680BC70474C0000200E
:1015FC00FC00002080B400AF024B1B681846BD46AF
:10160C0080BC7047FC00002080B485B000AF7860CF
:10161C007B6803F00703FB600C4BDB68BB60BA68AC
:10162C004FF6FF031340BB60FB681A02BB68134301
:10163C0043F0BF6343F40033BB60044ABB68D36020
:10164C0000BF1437BD4680BC704700BF00ED00E002
:10165C0080B400AF044BDB681B0A03F00703184689
:10166C00BD4680BC704700BF00ED00E080B483B085
:10167C0000AF0346FB7197F90730002B0BDBFB79AE
:10168C0003F01F02064997F907305B09012000FAA5
:10169C0002F241F8232000BF0C37BD4680BC7047D6
:1016AC0000E100E080B483B000AF03463960FB7109
:1016BC0097F90730002B0ADB3B68DAB20C4997F933
:1016CC0007301201D2B20B4483F800230AE03B68C6
:1016DC00DAB20849FB7903F00F03043B1201D2B2D2
:1016EC000B441A7600BF0C37BD4680BC704700BF58
:1016FC0000E100E000ED00E080B489B000AFF860DC
:10170C00B9607A60FB6803F00703FB61FB69C3F106
:10171C000703042B28BF0423BB61FB690433062B8E
:10172C0002D9FB69033B00E000237B614FF0FF32E1
:10173C00BB6902FA03F3DA43BB681A407B699A402F
:10174C004FF0FF317B6901FA03F3D9437B680B40FF
:10175C00134318462437BD4680BC704780B582B011
:10176C0000AF78607B68013BB3F1807F01D301232C
:10177C000FE00A4A7B68013B53600F214FF0FF30AA
:10178C00FFF790FF054B00229A60044B07221A606A
:10179C00002318460837BD4680BD00BF10E000E0AE
:1017AC0080B582B000AF78607868FFF72DFF00BF7E
:1017BC000837BD4680BD80B586B000AF0346B96022
:1017CC007A60FB7300237B61FFF742FF78617A68D4
:1017DC00B9687869FFF790FF024697F90F30114608
:1017EC001846FFF75FFF00BF1837BD4680BD80B5B8
:1017FC0082B000AF0346FB7197F907301846FFF72C
:10180C0035FF00BF0837BD4680BD80B582B000AF44
:10181C0078607868FFF7A2FF034618460837BD4684
:10182C0080BD000080B48BB000AF786039600023BD
:10183C007B6200233B6248E101227B6A02FA03F3DC
:10184C00FB613B681B68FA691340BB61BA69FB69B1
:10185C009A4240F037813B685B68A34A93425ED062
:10186C00A14A934275D8A14A934258D09F4A9342B9
:10187C006FD89F4A934252D09D4A934269D89D4A51
:10188C0093424CD09B4A934263D89B4A934246D096
:10189C00994A93425DD8122B2AD8122B59D801A2FF
:1018AC0052F823F02B190008051900081719000825
:1018BC00591900085F1900085F1900085F19000822
:1018CC005F1900085F1900085F1900085F1900080C
:1018DC005F1900085F1900085F1900085F190008FC
:1018EC005F1900085F1900080D190008211900087C
:1018FC00824A934213D02CE03B68DB683B6229E0C0
:10190C003B68DB6804333B6224E03B68DB680833EC
:10191C003B621FE03B68DB680C333B621AE03B68C0
:10192C009B68002B02D104233B6213E03B689B684D
:10193C00012B05D108233B627B68FA691A6109E027
:10194C0008233B627B68FA695A6103E000233B621F
:10195C0000E000BFBB69FF2B01D87B6801E07B680E
:10196C0004337B61BB69FF2B02D87B6A9B0002E0CE
:10197C007B6A083B9B003B617B691A680F213B69C2
:10198C0001FA03F3DB431A40396A3B6901FA03F3AA
:10199C001A437B691A603B685B6803F08053002B29
:1019AC0000F09080564B9B69554A43F001039361BC
:1019BC00534B9B6903F00103BB60BB68514A7B6AC4
:1019CC009B08023352F82330FB607B6A03F003035D
:1019DC009B000F2202FA03F3DB43FA681340FB600F
:1019EC007B68494A93420DD07B68484A934207D0A2
:1019FC007B68474A934201D1022304E0032302E0AF
:101A0C00012300E000237A6A02F003029200934063
:101A1C00FA681343FB603B497B6A9B080233FA6804
:101A2C0041F823203B685B6803F48033002B06D01D
:101A3C00384B1A683749BB6913430B6006E0354BCA
:101A4C001A68BB69DB43334913400B603B685B6826
:101A5C0003F40033002B06D02E4B5A682D49BB697A
:101A6C0013434B6006E02B4B5A68BB69DB43294997
:101A7C0013404B603B685B6803F48013002B06D06B
:101A8C00244B9A682349BB6913438B6006E0214BB6
:101A9C009A68BB69DB431F4913408B603B685B68EA
:101AAC0003F40013002B06D01A4BDA681949BB69F2
:101ABC001343CB6006E0174BDA68BB69DB4315496F
:101ACC001340CB607B6A01337B623B681A687B6A8C
:101ADC0022FA03F3002B7FF4AFAE00BF00BF2C370C
:101AEC00BD4680BC704700BF0000321000003110B2
:101AFC000000221000002110000012100000111034
:101B0C00001002400000014000080140000C0140A0
:101B1C00001001400004014080B485B000AF786033
:101B2C000B467B807B689A687B881340002B02D025
:101B3C000123FB7301E00023FB73FB7B1846143776
:101B4C00BD4680BC704780B483B000AF78600B4654
:101B5C007B8013467B707B78002B03D07A887B6864
:101B6C001A6103E07B881A047B681A6100BF0C378A
:101B7C00BD4680BC704780B485B000AF78600B4622
:101B8C007B807B68DB68FB607A88FB6813401A04F7
:101B9C00FB68D9437B880B401A437B681A6100BFF2
:101BAC001437BD4680BC704780B586B000AF7860F6
:101BBC007B68002B01D101236CE27B681B6803F06E
:101BCC000103002B00F08780924B5B6803F00C0341
:101BDC00042B0CD08F4B5B6803F00C03082B12D139
:101BEC008C4B5B6803F48033B3F5803F0BD1894B8E
:101BFC001B6803F40033002B6CD07B685B68002BF4
:101C0C0068D1012346E27B685B68B3F5803F06D15F
:101C1C00804B1B687F4A43F4803313602EE07B6853
:101C2C005B68002B0CD17B4B1B687A4A23F4803306
:101C3C001360784B1B68774A23F4802313601DE0F4
:101C4C007B685B68B3F5A02F0CD1724B1B68714A93
:101C5C0043F4802313606F4B1B686E4A43F480334C
:101C6C0013600BE06B4B1B686A4A23F480331360E0
:101C7C00684B1B68674A23F4802313607B685B689E
:101C8C00002B13D0FFF7B6FC386108E0FFF7B2FC6D
:101C9C0002463B69D31A642B01D90323FAE15D4B4D
:101CAC001B6803F40033002BF0D014E0FFF7A2FC08
:101CBC00386108E0FFF79EFC02463B69D31A642B9F
:101CCC0001D90323E6E1534B1B6803F40033002BCB
:101CDC00F0D100E000BF7B681B6803F00203002B0F
:101CEC0063D04C4B5B6803F00C03002B0BD0494BBF
:101CFC005B6803F00C03082B1CD1464B5B6803F4A8
:101D0C008033002B16D1434B1B6803F00203002BCE
:101D1C0005D07B681B69012B01D00123BAE13D4B37
:101D2C001B6823F0F8027B685B69DB0039491343BD
:101D3C000B603AE07B681B69002B20D0364B0122EC
:101D4C001A60FFF757FC386108E0FFF753FC0246B6
:101D5C003B69D31A022B01D903239BE12D4B1B6842
:101D6C0003F00203002BF0D02A4B1B6823F0F8027F
:101D7C007B685B69DB00274913430B6015E0264B3E
:101D8C0000221A60FFF736FC386108E0FFF732FCDE
:101D9C0002463B69D31A022B01D903237AE11D4B6E
:101DAC001B6803F00203002BF0D17B681B6803F067
:101DBC000803002B3AD07B689B69002B19D0174B7A
:101DCC0001221A60FFF716FC386108E0FFF712FCDD
:101DDC0002463B69D31A022B01D903235AE10D4B5E
:101DEC005B6A03F00203002BF0D0012000F0A6FA8E
:101DFC001CE00A4B00221A60FFF7FCFB38610FE075
:101E0C00FFF7F8FB02463B69D31A022B08D90323D0
:101E1C0040E100BF001002400000424280044242F8
:101E2C009E4B5B6A03F00203002BE9D17B681B68B5
:101E3C0003F00403002B00F0A6800023FB75974BE6
:101E4C00DB6903F08053002B0DD1944BDB69934A73
:101E5C0043F08053D361914BDB6903F08053BB603B
:101E6C00BB680123FB758E4B1B6803F48073002B3E
:101E7C0018D18B4B1B688A4A43F480731360FFF7AD
:101E8C00B9FB386108E0FFF7B5FB02463B69D31A92
:101E9C00642B01D90323FDE0814B1B6803F4807391
:101EAC00002BF0D07B68DB68012B06D17B4B1B6AC7
:101EBC007A4A43F0010313622DE07B68DB68002B48
:101ECC000CD1764B1B6A754A23F001031362734BDA
:101EDC001B6A724A23F0040313621CE07B68DB6804
:101EEC00052B0CD16D4B1B6A6C4A43F00403136237
:101EFC006A4B1B6A694A43F0010313620BE0674BA0
:101F0C001B6A664A23F001031362644B1B6A634A23
:101F1C0023F0040313627B68DB68002B15D0FFF7FA
:101F2C0069FB38610AE0FFF765FB02463B69D31A8F
:101F3C0041F28832934201D90323ABE0574B1B6A21
:101F4C0003F00203002BEED014E0FFF753FB3861D3
:101F5C000AE0FFF74FFB02463B69D31A41F2883285
:101F6C00934201D9032395E04C4B1B6A03F0020307
:101F7C00002BEED1FB7D012B05D1484BDB69474A89
:101F8C0023F08053D3617B68DB69002B00F08180E8
:101F9C00424B5B6803F00C03082B61D07B68DB6958
:101FAC00022B46D13F4B00221A60FFF723FB38610E
:101FBC0008E0FFF71FFB02463B69D31A022B01D93D
:101FCC00032367E0354B1B6803F00073002BF0D143
:101FDC007B681B6AB3F5803F08D1304B5B6823F4F8
:101FEC0000327B689B682D4913434B602B4B5B681D
:101FFC0023F474127B68196A7B685B6A0B4327496C
:10200C0013434B60274B01221A60FFF7F3FA386138
:10201C0008E0FFF7EFFA02463B69D31A022B01D90D
:10202C00032337E01D4B1B6803F00073002BF0D02B
:10203C002FE01C4B00221A60FFF7DCFA386108E035
:10204C00FFF7D8FA02463B69D31A022B01D90323B6
:10205C0020E0124B1B6803F00073002BF0D118E04A
:10206C007B68DB69012B01D1012313E00B4B5B680F
:10207C00FB60FB6803F480327B681B6A9A4206D1D2
:10208C00FB6803F470127B685B6A9A4201D00123EF
:10209C0000E0002318461837BD4680BD00100240F2
:1020AC00007000406000424280B584B000AF7860A0
:1020BC0039607B68002B01D10123D0E06A4B1B688F
:1020CC0003F007033A689A4210D9674B1B6823F058
:1020DC00070265493B6813430B60634B1B6803F0B5
:1020EC0007033A689A4201D00123B8E07B681B6869
:1020FC0003F00203002B20D07B681B6803F0040361
:10210C00002B05D0594B5B68584A43F4E06353608D
:10211C007B681B6803F00803002B05D0534B5B68EE
:10212C00524A43F460535360504B5B6823F0F00207
:10213C007B689B684D4913434B607B681B6803F0BD
:10214C000103002B40D07B685B68012B07D1474B08
:10215C001B6803F40033002B15D101237FE07B684F
:10216C005B68022B07D1414B1B6803F00073002BFB
:10217C0009D1012373E03D4B1B6803F00203002BD4
:10218C0001D101236BE0394B5B6823F003027B68C0
:10219C005B68364913434B60FFF72CFAF8600AE092
:1021AC00FFF728FA0246FB68D31A41F288329342B1
:1021BC0001D9032353E02D4B5B6803F00C027B68C1
:1021CC005B689B009A42EBD1274B1B6803F007031B
:1021DC003A689A4210D2244B1B6823F0070222491A
:1021EC003B6813430B60204B1B6803F007033A68F2
:1021FC009A4201D0012332E07B681B6803F0040390
:10220C00002B08D0194B5B6823F4E0627B68DB6819
:10221C00164913434B607B681B6803F00803002BC3
:10222C0009D0124B5B6823F460527B681B69DB009E
:10223C000E4913434B6000F021F802460B4B5B68D0
:10224C001B0903F00F030A49CB5C22FA03F3094A7A
:10225C001360094B1B681846FFF78AF900231846D0
:10226C001037BD4680BD00BF002002400010024068
:10227C00CC2B0008440000204800002090B48AB009
:10228C0000AF2A4B3C1D0FCB84E80F0040F201231A
:10229C003B800023FB610023BB6100237B62002396
:1022AC007B6100233B62224B5B68FB61FB6903F0A3
:1022BC000C03042B02D0082B03D02DE01D4B3B62EA
:1022CC002DE0FB699B0C03F00F0307F1280213446C
:1022DC0013F8243C7B61FB6903F48033002B13D08F
:1022EC00134B5B685B0C03F0010307F128021344EA
:1022FC0013F8283CBB617B690E4A02FB03F2BB69F5
:10230C00B2FBF3F37B6204E07B690B4A02FB03F341
:10231C007B627B6A3B6202E0064B3B6200BF3B6A1E
:10232C0018462837BD4690BC704700BFBC2B000830
:10233C000010024000127A0000093D0080B485B004
:10234C0000AF78600A4B1B680A4AA2FB03235B0AA6
:10235C007A6802FB03F3FB6000BFFB685A1EFA604D
:10236C00002BF9D100BF00BF1437BD4680BC7047AD
:10237C0044000020D34D621080B582B000AF78606D
:10238C007B68002B01D1012341E07B6893F83D3041
:10239C00DBB2002B06D17B68002283F83C207868E6
:1023AC00FFF74EF87B68022283F83D207B681A68A1
:1023BC007B6804331946104600F06AFA7B680122E8
:1023CC0083F846207B68012283F83E207B6801223B
:1023DC0083F83F207B68012283F840207B68012230
:1023EC0083F841207B68012283F842207B6801221C
:1023FC0083F843207B68012283F844207B68012208
:10240C0083F845207B68012283F83D200023184681
:10241C000837BD4680BD000080B485B000AF786041
:10242C007B6893F83D30DBB2012B01D0012335E002
:10243C007B68022283F83D207B681B68DA687B6826
:10244C001B6842F00102DA607B681B68164A9342F3
:10245C0009D07B681B68B3F1804F04D07B681B6884
:10246C00124A934211D17B681B689B6803F00703E7
:10247C00FB60FB68062B10D07B681B681A687B68B6
:10248C001B6842F001021A6007E07B681B681A683F
:10249C007B681B6842F001021A600023184614374F
:1024AC00BD4680BC704700BF002C014000040040BA
:1024BC0080B582B000AF78607B681B681B6903F045
:1024CC000203022B22D17B681B68DB6803F002033A
:1024DC00022B1BD17B681B686FF002021A617B68B0
:1024EC0001221A777B681B689B6903F00303002B9E
:1024FC0003D0786800F0B1F905E0786800F0A4F931
:10250C00786800F0B3F97B6800221A777B681B6847
:10251C001B6903F00403042B22D17B681B68DB6866
:10252C0003F00403042B1BD17B681B686FF00402BF
:10253C001A617B6802221A777B681B689B6903F41B
:10254C004073002B03D0786800F087F905E07868B9
:10255C0000F07AF9786800F089F97B6800221A7724
:10256C007B681B681B6903F00803082B22D17B686E
:10257C001B68DB6803F00803082B1BD17B681B6806
:10258C006FF008021A617B6804221A777B681B685B
:10259C00DB6903F00303002B03D0786800F05DF9CE
:1025AC0005E0786800F050F9786800F05FF97B6816
:1025BC0000221A777B681B681B6903F01003102B31
:1025CC0022D17B681B68DB6803F01003102B1BD136
:1025DC007B681B686FF010021A617B6808221A77FF
:1025EC007B681B68DB6903F44073002B03D07868AD
:1025FC0000F033F905E0786800F026F9786800F00F
:10260C0035F97B6800221A777B681B681B6903F01D
:10261C000103012B0ED17B681B68DB6803F00103FF
:10262C00012B07D17B681B686FF001021A61786877
:10263C00FEF76CFE7B681B681B6903F08003802B24
:10264C000ED17B681B68DB6803F08003802B07D1FD
:10265C007B681B686FF080021A61786800F067FA7B
:10266C007B681B681B6903F04003402B0ED17B6811
:10267C001B68DB6803F04003402B07D17B681B68A9
:10268C006FF040021A61786800F0F9F87B681B68FB
:10269C001B6903F02003202B0ED17B681B68DB68C1
:1026AC0003F02003202B07D17B681B686FF02002FE
:1026BC001A61786800F032FA00BF0837BD4680BD59
:1026CC0080B584B000AF786039607B6893F83C309B
:1026DC00012B01D10223B3E07B68012283F83C205B
:1026EC007B68022283F83D207B681B689B68FB603B
:1026FC00FB6823F07703FB60FB6823F47F43FB60EC
:10270C007B681B68FA689A603B681B68B3F5005FCE
:10271C003ED0B3F5005F00F28780B3F5805F00F028
:10272C008580B3F5805F7FD8702B1AD0702B7BD847
:10273C00602B50D0602B77D8502B3CD0502B73D8BB
:10274C00402B58D0402B6FD8302B64D0302B6BD80B
:10275C00202B60D0202B67D8002B5CD0102B5AD0AC
:10276C0062E07B6818683B6899683B685A683B680C
:10277C00DB6800F05CF97B681B689B68FB60FB689E
:10278C0043F07703FB607B681B68FA689A604EE045
:10279C007B6818683B6899683B685A683B68DB68DB
:1027AC0000F045F97B681B689A687B681B6842F4EB
:1027BC0080429A603BE07B6818683B6859683B68CC
:1027CC00DB681A4600F0BCF87B681B685021184681
:1027DC0000F013F92BE07B6818683B6859683B687C
:1027EC00DB681A4600F0DAF87B681B686021184633
:1027FC0000F003F91BE07B6818683B6859683B687C
:10280C00DB681A4600F09CF87B681B684021184670
:10281C0000F0F3F80BE07B681A683B681B681946FC
:10282C00104600F0EAF802E000BF00E000BF7B6851
:10283C00012283F83D207B68002283F83C20002392
:10284C0018461037BD4680BD80B483B000AF7860A9
:10285C0000BF0C37BD4680BC704780B483B000AF5E
:10286C00786000BF0C37BD4680BC704780B483B025
:10287C0000AF786000BF0C37BD4680BC704780B499
:10288C0083B000AF786000BF0C37BD4680BC70478A
:10289C0080B485B000AF786039607B681B68FB60E2
:1028AC007B68254A934207D07B68B3F1804F03D0F5
:1028BC007B68224A934208D1FB6823F07003FB60CB
:1028CC003B685B68FA681343FB607B681A4A934267
:1028DC0007D07B68B3F1804F03D07B68174A9342D3
:1028EC0008D1FB6823F44073FB603B68DB68FA6833
:1028FC001343FB60FB6823F080023B685B69134366
:10290C00FB607B68FA681A603B689A687B68DA62DD
:10291C003B681A687B689A627B68074A934203D1CA
:10292C003B681A697B681A637B6801225A6100BF95
:10293C001437BD4680BC7047002C01400004004099
:10294C0080B487B000AFF860B9607A60FB681B6A2E
:10295C007B61FB681B6A23F00102FB681A62FB684F
:10296C009B693B613B6923F0F0033B617B681B0176
:10297C003A6913433B617B6923F00A037B617A69F3
:10298C00BB6813437B61FB683A699A61FB687A699F
:10299C001A6200BF1C37BD4680BC704780B487B03C
:1029AC0000AFF860B9607A60FB681B6A23F0100214
:1029BC00FB681A62FB689B697B61FB681B6A3B6165
:1029CC007B6923F470437B617B681B037A69134337
:1029DC007B613B6923F0A0033B61BB681B013A6937
:1029EC0013433B61FB687A699A61FB683A691A6226
:1029FC0000BF1C37BD4680BC704780B485B000AFAB
:102A0C00786039607B689B68FB60FB6823F070031F
:102A1C00FB603A68FB68134343F00703FB607B6879
:102A2C00FA689A6000BF1437BD4680BC704780B40A
:102A3C0087B000AFF860B9607A603B60FB689B6858
:102A4C007B617B6923F47F437B613B681A027B6863
:102A5C001A43BB6813437A6913437B61FB687A6939
:102A6C009A6000BF1C37BD4680BC704780B485B0EF
:102A7C0000AF786039607B6893F83C30012B01D152
:102A8C00022341E07B68012283F83C207B68022210
:102A9C0083F83D207B681B685B68FB607B681B6868
:102AAC009B68BB60FB6823F07003FB603B681B6892
:102ABC00FA681343FB607B681B68FA685A607B6892
:102ACC001B68144A934209D07B681B68B3F1804F92
:102ADC0004D07B681B68104A93420CD1BB6823F06E
:102AEC008003BB603B685B68BA681343BB607B6860
:102AFC001B68BA689A607B68012283F83D207B686A
:102B0C00002283F83C20002318461437BD4680BCB5
:102B1C00704700BF002C01400004004080B483B01B
:102B2C0000AF786000BF0C37BD4680BC704780B4E6
:102B3C0083B000AF786000BF0C37BD4680BC7047D7
:102B4C0070B500260C4D0D4C641BA410A64209D187
:102B5C0000F022F800260A4D0A4C641BA410A64271
:102B6C0005D170BD55F8043B98470136EEE755F892
:102B7C00043B98470136F2E7DC2B0008DC2B0008FD
:102B8C00DC2B0008E02B000803460244934200D1E2
:102B9C00704703F8011BF9E7F8B500BFF8BC08BC97
:102BAC009E467047F8B500BFF8BC08BC9E467047FF
:102BBC0002030405060708090A0B0C0D0E0F101072
:102BCC0000000000000000000102030406070809D1
:042BDC0031010008BB
:042BE0000D010008DB
:102BE40001000000000000000000000001000000DF
:102BF40000000000000000000100000000000000D0
:102C040000000000010000000000000000000000BF
:102C1400D00700000100000088130000B80B00007A
:102C2400D00700000024F4001000000001000000A0
:0400000508001505D5
:00000001FF
